{
  "contractName": "Crowdfund",
  "abi": [
    {
      "inputs": [
        {
          "internalType": "uint256",
          "name": "_goal",
          "type": "uint256"
        },
        {
          "internalType": "uint256",
          "name": "_maxDuration",
          "type": "uint256"
        }
      ],
      "stateMutability": "nonpayable",
      "type": "constructor"
    },
    {
      "inputs": [
        {
          "internalType": "address",
          "name": "",
          "type": "address"
        }
      ],
      "name": "donors",
      "outputs": [
        {
          "internalType": "uint256",
          "name": "",
          "type": "uint256"
        }
      ],
      "stateMutability": "view",
      "type": "function",
      "constant": true
    },
    {
      "inputs": [],
      "name": "owner",
      "outputs": [
        {
          "internalType": "address payable",
          "name": "",
          "type": "address"
        }
      ],
      "stateMutability": "view",
      "type": "function",
      "constant": true
    },
    {
      "inputs": [
        {
          "internalType": "uint32",
          "name": "_startAt",
          "type": "uint32"
        },
        {
          "internalType": "uint32",
          "name": "_endAt",
          "type": "uint32"
        }
      ],
      "name": "launch",
      "outputs": [],
      "stateMutability": "nonpayable",
      "type": "function"
    },
    {
      "inputs": [],
      "name": "sendFunds",
      "outputs": [],
      "stateMutability": "payable",
      "type": "function",
      "payable": true
    },
    {
      "inputs": [],
      "name": "viewTotalBalance",
      "outputs": [
        {
          "internalType": "uint256",
          "name": "",
          "type": "uint256"
        }
      ],
      "stateMutability": "view",
      "type": "function",
      "constant": true
    },
    {
      "inputs": [],
      "name": "claim",
      "outputs": [],
      "stateMutability": "nonpayable",
      "type": "function"
    }
  ],
  "bytecode": "0x608060405234801561001057600080fd5b50604051610e25380380610e25833981810160405281019061003291906100c2565b336000806101000a81548173ffffffffffffffffffffffffffffffffffffffff021916908373ffffffffffffffffffffffffffffffffffffffff16021790555081600181905550806007819055505050610102565b600080fd5b6000819050919050565b61009f8161008c565b81146100aa57600080fd5b50565b6000815190506100bc81610096565b92915050565b600080604083850312156100d9576100d8610087565b5b60006100e7858286016100ad565b92505060206100f8858286016100ad565b9150509250929050565b610d14806101116000396000f3fe6080604052600436106100555760003560e01c806335c5e7221461005a5780634e71d92d146100855780638d68cf591461009c5780638da5cb5b146100a6578063ca0cdea8146100d1578063f28a4f821461010e575b600080fd5b34801561006657600080fd5b5061006f610137565b60405161007c9190610681565b60405180910390f35b34801561009157600080fd5b5061009a61013f565b005b6100a461033c565b005b3480156100b257600080fd5b506100bb6104ca565b6040516100c891906106dd565b60405180910390f35b3480156100dd57600080fd5b506100f860048036038101906100f3919061073b565b6104ee565b6040516101059190610681565b60405180910390f35b34801561011a57600080fd5b50610135600480360381019061013091906107a4565b610506565b005b600047905090565b60008054906101000a900473ffffffffffffffffffffffffffffffffffffffff1673ffffffffffffffffffffffffffffffffffffffff163373ffffffffffffffffffffffffffffffffffffffff16146101cd576040517f08c379a00000000000000000000000000000000000000000000000000000000081526004016101c490610841565b60405180910390fd5b4260045410610211576040517f08c379a0000000000000000000000000000000000000000000000000000000008152600401610208906108ad565b60405180910390fd5b6001546002541015610258576040517f08c379a000000000000000000000000000000000000000000000000000000000815260040161024f90610919565b60405180910390fd5b600560009054906101000a900460ff16156102a8576040517f08c379a000000000000000000000000000000000000000000000000000000000815260040161029f90610985565b60405180910390fd5b6001600560006101000a81548160ff02191690831515021790555060006002549050600060028190555060008054906101000a900473ffffffffffffffffffffffffffffffffffffffff1673ffffffffffffffffffffffffffffffffffffffff166108fc829081150290604051600060405180830381858888f19350505050158015610338573d6000803e3d6000fd5b5050565b600354421015610381576040517f08c379a0000000000000000000000000000000000000000000000000000000008152600401610378906109f1565b60405180910390fd5b6004544211156103c6576040517f08c379a00000000000000000000000000000000000000000000000000000000081526004016103bd90610a5d565b60405180910390fd5b6000600860003373ffffffffffffffffffffffffffffffffffffffff1673ffffffffffffffffffffffffffffffffffffffff1681526020019081526020016000205403610426576006600081548092919061042090610aac565b91905055505b346002546104349190610af4565b60028190555034600860003373ffffffffffffffffffffffffffffffffffffffff1673ffffffffffffffffffffffffffffffffffffffff168152602001908152602001600020546104859190610af4565b600860003373ffffffffffffffffffffffffffffffffffffffff1673ffffffffffffffffffffffffffffffffffffffff16815260200190815260200160002081905550565b60008054906101000a900473ffffffffffffffffffffffffffffffffffffffff1681565b60086020528060005260406000206000915090505481565b60008054906101000a900473ffffffffffffffffffffffffffffffffffffffff1673ffffffffffffffffffffffffffffffffffffffff163373ffffffffffffffffffffffffffffffffffffffff1614610594576040517f08c379a000000000000000000000000000000000000000000000000000000000815260040161058b90610b9a565b60405180910390fd5b428263ffffffff1610156105dd576040517f08c379a00000000000000000000000000000000000000000000000000000000081526004016105d490610c2c565b60405180910390fd5b8163ffffffff168163ffffffff161161062b576040517f08c379a000000000000000000000000000000000000000000000000000000000815260040161062290610cbe565b60405180910390fd5b600754426106399190610af4565b8163ffffffff161061064a57600080fd5b8163ffffffff166003819055508063ffffffff166004819055505050565b6000819050919050565b61067b81610668565b82525050565b60006020820190506106966000830184610672565b92915050565b600073ffffffffffffffffffffffffffffffffffffffff82169050919050565b60006106c78261069c565b9050919050565b6106d7816106bc565b82525050565b60006020820190506106f260008301846106ce565b92915050565b600080fd5b60006107088261069c565b9050919050565b610718816106fd565b811461072357600080fd5b50565b6000813590506107358161070f565b92915050565b600060208284031215610751576107506106f8565b5b600061075f84828501610726565b91505092915050565b600063ffffffff82169050919050565b61078181610768565b811461078c57600080fd5b50565b60008135905061079e81610778565b92915050565b600080604083850312156107bb576107ba6106f8565b5b60006107c98582860161078f565b92505060206107da8582860161078f565b9150509250929050565b600082825260208201905092915050565b7f596f7520617265206e6f74207468652063726561746f72000000000000000000600082015250565b600061082b6017836107e4565b9150610836826107f5565b602082019050919050565b6000602082019050818103600083015261085a8161081e565b9050919050565b7f5468652063616d706169676e20686173206e6f742079657420656e6465640000600082015250565b6000610897601e836107e4565b91506108a282610861565b602082019050919050565b600060208201905081810360008301526108c68161088a565b9050919050565b7f476f616c206e6f74206163686965766564000000000000000000000000000000600082015250565b60006109036011836107e4565b915061090e826108cd565b602082019050919050565b60006020820190508181036000830152610932816108f6565b9050919050565b7f416c726561647920636c61696d65640000000000000000000000000000000000600082015250565b600061096f600f836107e4565b915061097a82610939565b602082019050919050565b6000602082019050818103600083015261099e81610962565b9050919050565b7f43616d706169676e20686173206e6f7420537461727465642079657400000000600082015250565b60006109db601c836107e4565b91506109e6826109a5565b602082019050919050565b60006020820190508181036000830152610a0a816109ce565b9050919050565b7f43616d706169676e2068617320616c726561647920656e646564000000000000600082015250565b6000610a47601a836107e4565b9150610a5282610a11565b602082019050919050565b60006020820190508181036000830152610a7681610a3a565b9050919050565b7f4e487b7100000000000000000000000000000000000000000000000000000000600052601160045260246000fd5b6000610ab782610668565b91507fffffffffffffffffffffffffffffffffffffffffffffffffffffffffffffffff8203610ae957610ae8610a7d565b5b600182019050919050565b6000610aff82610668565b9150610b0a83610668565b9250828201905080821115610b2257610b21610a7d565b5b92915050565b7f596f752063616e206e6f74206c61756e6368207468652063726f776466756e6460008201527f696e670000000000000000000000000000000000000000000000000000000000602082015250565b6000610b846023836107e4565b9150610b8f82610b28565b604082019050919050565b60006020820190508181036000830152610bb381610b77565b9050919050565b7f506c6561736520656e74657220636f72726563742074696d6520666f72206c6160008201527f756e636800000000000000000000000000000000000000000000000000000000602082015250565b6000610c166024836107e4565b9150610c2182610bba565b604082019050919050565b60006020820190508181036000830152610c4581610c09565b9050919050565b7f456e642074696d652063616e206e6f74206265206561726c696572207468616e60008201527f207374617274696e672074696d65000000000000000000000000000000000000602082015250565b6000610ca8602e836107e4565b9150610cb382610c4c565b604082019050919050565b60006020820190508181036000830152610cd781610c9b565b905091905056fea26469706673582212208b73ac82ad12b5ab6ae1b24e496f5d257cced393370574905a6c76727bd43a0564736f6c63430008130033",
  "immutableReferences": {},
  "source": "// SPDX-License-Identifier: MIT\r\npragma solidity 0.8.19;\r\n\r\ncontract Crowdfund{\r\n    address payable public owner;\r\n    uint goal;\r\n    uint raised;\r\n    uint startAt;\r\n    uint endAt;\r\n    bool claimed;\r\n    uint numOfDonors;\r\n    uint maxDuration;\r\n    mapping(address => uint) public donors;\r\n\r\n\r\n    constructor(uint _goal, uint _maxDuration) {\r\n        owner = payable(msg.sender);\r\n        goal = _goal;\r\n        maxDuration = _maxDuration;\r\n    }\r\n\r\n    function launch(uint32 _startAt, uint32 _endAt) external {\r\n        require(msg.sender == owner, \"You can not launch the crowdfunding\");\r\n        require(_startAt >= block.timestamp, \"Please enter correct time for launch\");\r\n        require(_endAt > _startAt, \"End time can not be earlier than starting time\");\r\n        require(_endAt < block.timestamp + maxDuration);\r\n        startAt = _startAt;\r\n        endAt = _endAt;\r\n        // emit Launch(msg.sender, _goal, _startAt, _endAt);\r\n    }\r\n\r\n\r\n    function sendFunds() external payable{\r\n        require(block.timestamp >= startAt, \"Campaign has not Started yet\");\r\n        require(block.timestamp <= endAt, \"Campaign has already ended\");\r\n\r\n        if(donors[msg.sender] == 0){\r\n            numOfDonors++;\r\n        }\r\n        raised = raised + msg.value;\r\n        donors[msg.sender] = donors[msg.sender] + msg.value;\r\n \r\n        // emit Sendfunds(msg.sender, _amount);\r\n    }\r\n\r\n    function viewTotalBalance() external view returns(uint) {\r\n        return address(this).balance;\r\n    }\r\n\r\n    function claim() public {\r\n        require(msg.sender == owner, \"You are not the creator\");\r\n        require(endAt < block.timestamp, \"The campaign has not yet ended\");\r\n        require(raised >= goal, \"Goal not achieved\");\r\n        require(!claimed, \"Already claimed\");\r\n\r\n        claimed = true;\r\n        uint transferAmount = raised;\r\n        raised = 0;\r\n        owner.transfer(transferAmount);\r\n        // emit Claim();\r\n    }\r\n}",
  "sourcePath": "C:\\Users\\DEll\\Desktop\\Blockchain Development\\Crowd Funding\\crowdGanache\\contracts\\Crowdfund.sol",
  "compiler": {
    "name": "solc",
    "version": "0.8.19+commit.7dd6d404.Emscripten.clang"
  },
  "schemaVersion": "3.4.11",
  "updatedAt": "2023-04-01T19:13:19.381Z",
  "networkType": "ethereum",
  "devdoc": {
    "kind": "dev",
    "methods": {},
    "version": 1
  },
  "userdoc": {
    "kind": "user",
    "methods": {},
    "version": 1
  }
}